{
  "_format": "hh-sol-artifact-1",
  "contractName": "Assessment",
  "sourceName": "contracts/Assessment.sol",
  "abi": [
    {
      "inputs": [
        {
          "internalType": "uint256",
          "name": "initBalance",
          "type": "uint256"
        }
      ],
      "stateMutability": "payable",
      "type": "constructor"
    },
    {
      "inputs": [
        {
          "internalType": "uint256",
          "name": "balance",
          "type": "uint256"
        },
        {
          "internalType": "uint256",
          "name": "withdrawAmount",
          "type": "uint256"
        }
      ],
      "name": "InsufficientBalance",
      "type": "error"
    },
    {
      "anonymous": false,
      "inputs": [
        {
          "indexed": false,
          "internalType": "uint256",
          "name": "amount",
          "type": "uint256"
        }
      ],
      "name": "Deposit",
      "type": "event"
    },
    {
      "anonymous": false,
      "inputs": [
        {
          "indexed": false,
          "internalType": "uint256",
          "name": "amount",
          "type": "uint256"
        }
      ],
      "name": "Withdraw",
      "type": "event"
    },
    {
      "inputs": [],
      "name": "balance",
      "outputs": [
        {
          "internalType": "uint256",
          "name": "",
          "type": "uint256"
        }
      ],
      "stateMutability": "view",
      "type": "function"
    },
    {
      "inputs": [
        {
          "internalType": "uint256",
          "name": "_amount",
          "type": "uint256"
        }
      ],
      "name": "deposit",
      "outputs": [],
      "stateMutability": "payable",
      "type": "function"
    },
    {
      "inputs": [],
      "name": "getBalance",
      "outputs": [
        {
          "internalType": "uint256",
          "name": "",
          "type": "uint256"
        }
      ],
      "stateMutability": "view",
      "type": "function"
    },
    {
      "inputs": [],
      "name": "owner",
      "outputs": [
        {
          "internalType": "address payable",
          "name": "",
          "type": "address"
        }
      ],
      "stateMutability": "view",
      "type": "function"
    },
    {
      "inputs": [
        {
          "internalType": "uint256",
          "name": "_withdrawAmount",
          "type": "uint256"
        }
      ],
      "name": "withdraw",
      "outputs": [],
      "stateMutability": "nonpayable",
      "type": "function"
    }
  ],
  "bytecode": "0x608060405260405161073f38038061073f833981810160405281019061002591906100ad565b336000806101000a81548173ffffffffffffffffffffffffffffffffffffffff021916908373ffffffffffffffffffffffffffffffffffffffff16021790555080600181905550506100da565b600080fd5b6000819050919050565b61008a81610077565b811461009557600080fd5b50565b6000815190506100a781610081565b92915050565b6000602082840312156100c3576100c2610072565b5b60006100d184828501610098565b91505092915050565b610656806100e96000396000f3fe60806040526004361061004a5760003560e01c806312065fe01461004f5780632e1a7d4d1461007a5780638da5cb5b146100a3578063b69ef8a8146100ce578063b6b55f25146100f9575b600080fd5b34801561005b57600080fd5b50610064610115565b60405161007191906103b9565b60405180910390f35b34801561008657600080fd5b506100a1600480360381019061009c9190610405565b61011f565b005b3480156100af57600080fd5b506100b8610270565b6040516100c59190610473565b60405180910390f35b3480156100da57600080fd5b506100e3610294565b6040516100f091906103b9565b60405180910390f35b610113600480360381019061010e9190610405565b61029a565b005b6000600154905090565b60008054906101000a900473ffffffffffffffffffffffffffffffffffffffff1673ffffffffffffffffffffffffffffffffffffffff163373ffffffffffffffffffffffffffffffffffffffff16146101ad576040517f08c379a00000000000000000000000000000000000000000000000000000000081526004016101a490610511565b60405180910390fd5b600060015490508160015410156101ff57600154826040517fcf4791810000000000000000000000000000000000000000000000000000000081526004016101f6929190610531565b60405180910390fd5b81600160008282546102119190610589565b9250508190555081816102249190610589565b60015414610235576102346105bd565b5b7f5b6b431d4476a211bb7d41c20d1aab9ae2321deee0d20be3d9fc9b1093fa6e3d8260405161026491906103b9565b60405180910390a15050565b60008054906101000a900473ffffffffffffffffffffffffffffffffffffffff1681565b60015481565b6000600154905060008054906101000a900473ffffffffffffffffffffffffffffffffffffffff1673ffffffffffffffffffffffffffffffffffffffff163373ffffffffffffffffffffffffffffffffffffffff161461032f576040517f08c379a000000000000000000000000000000000000000000000000000000000815260040161032690610511565b60405180910390fd5b816001600082825461034191906105ec565b92505081905550818161035491906105ec565b60015414610365576103646105bd565b5b7f4d6ce1e535dbade1c23defba91e23b8f791ce5edc0cc320257a2b364e4e384268260405161039491906103b9565b60405180910390a15050565b6000819050919050565b6103b3816103a0565b82525050565b60006020820190506103ce60008301846103aa565b92915050565b600080fd5b6103e2816103a0565b81146103ed57600080fd5b50565b6000813590506103ff816103d9565b92915050565b60006020828403121561041b5761041a6103d4565b5b6000610429848285016103f0565b91505092915050565b600073ffffffffffffffffffffffffffffffffffffffff82169050919050565b600061045d82610432565b9050919050565b61046d81610452565b82525050565b60006020820190506104886000830184610464565b92915050565b600082825260208201905092915050565b7f596f7520617265206e6f7420746865206f776e6572206f66207468697320616360008201527f636f756e74000000000000000000000000000000000000000000000000000000602082015250565b60006104fb60258361048e565b91506105068261049f565b604082019050919050565b6000602082019050818103600083015261052a816104ee565b9050919050565b600060408201905061054660008301856103aa565b61055360208301846103aa565b9392505050565b7f4e487b7100000000000000000000000000000000000000000000000000000000600052601160045260246000fd5b6000610594826103a0565b915061059f836103a0565b92508282039050818111156105b7576105b661055a565b5b92915050565b7f4e487b7100000000000000000000000000000000000000000000000000000000600052600160045260246000fd5b60006105f7826103a0565b9150610602836103a0565b925082820190508082111561061a5761061961055a565b5b9291505056fea2646970667358221220d013ad58f854f699eb2e431eafe38ba91b1b02f8719a7ec74c37b185ebb0f9fc64736f6c63430008110033",
  "linkReferences": {},
  "deployedLinkReferences": {}
}